:1000000002000375814E1201A7E582600302006FB2
:10001000780079007A007B007C007D00EC4D601C4C
:1000200088828983E493A3A882A9838A828B83F040
:10003000A3AA82AB831CBCFFE31D80E07582007520
:1000400083007C007D00EC4D600AE4F0A31CBCFF43
:10005000F51D80F27582007583007C007D00EC4DFB
:10006000600AE4F0A31CBCFFF51D80F21201A61289
:1000700003B480FE202020202020202020202020CB
:1000800020202020001B5B324A00506572696F649B
:10009000206D6561737572656D656E742061742085
:1000A00070696E2050302E31207573696E67205450
:1000B000696D657220302E0A46696C653A20257399
:1000C0000A436F6D70696C65643A2025732C202596
:1000D000730A0A00433A5C55736572735C44616E3F
:1000E00069656C20546F6E675C44726F70626F78E4
:1000F0005C454C45433239312044657369676E2055
:1001000053747564696F5C6D6F64756C65342D2D07
:1001100043617061636974616E6365204D657465E8
:10012000725C636F64655C4D6F64756C65345F66AB
:10013000696E616C5F636F64655F776974685F6245
:100140006F6E75732E630046656220323720323041
:1001500031370032323A31353A34310050305F3283
:1001600020666F7220430050305F3320666F72202C
:10017000520054203D202566207300436170203DCD
:1001800020252E3266206E460052203D20252E323C
:1001900066204F686D004572726F723A2052657327
:1001A000656C656374002253D9BF75FF8075EF06D7
:1001B00043A90343B20343A41043A50F43A6077505
:1001C000E10175E240758D30538EF4438E08858DC4
:1001D0008B53890F438920D28E75985275820022E5
:1001E00043A41075E10175E25075E3002243A903B1
:1001F00043B20375EF0422759810758D30538EF459
:10020000438E08858D8B53890F438920D28ED299D6
:1002100022AA82438E407592D07593FF8592948571
:1002200093957591047B00C3EB9A5012E59130E7EA
:10023000FB53917F108D02800205090B80E97591B7
:100240000022AA82AB83BA0004BB0001227582F9A6
:10025000C002C0031202117582F91202117582F9EF
:100260001202117582FA120211D003D0021ABAFFDB
:10027000011B80D25389F0438901C28C22D2A07520
:100280008228120211C2A022AA828AE0A2E79290DA
:10029000A2E69291A2E59292A2E49293C002120287
:1002A0007D758228120211D0028AE0A2E39290A208
:1002B000E29291A2E19292A2E0929302027DAA823E
:1002C000D2A28A82120288900002020242AA82C24C
:1002D000A28A82120288900005020242C2A0C2A134
:1002E0009000141202427582331202CD75823312CD
:1002F00002CD7582321202CD7582281202CD75822E
:100300000C1202CD7582011202CD9000140202423D
:10031000AA82AB83ACF07402B50A047DC080027D72
:10032000808D82C002C003C0041202CD900005126D
:100330000242D004D003D0027D007E00ED2AFFEE01
:100340003BF88C018F82888389F012077AFF602046
:100350008F82C002C003C004C005C0061202BED016
:1003600006D005D004D003D0020DBD00CF0E80CC46
:100370003000248D028E03C3EA9410EB64809480D5
:100380005015758220C002C0031202BED003D002F5
:100390000ABA00E30B80E022750A01D200900074D3
:1003A00075F080120310750A02D20090007475F087
:1003B0008002031053D9BF1201E01201ED1201F7C0
:1003C0001202741202DC7485C0E07400C0E0748014
:1003D000C0E01208B21581158115817453C0E07414
:1003E00001C0E07480C0E07447C0E07401C0E074F4
:1003F00080C0E074D4C0E07400C0E07480C0E074D9
:100400008AC0E07400C0E07480C0E01208B2E581E8
:1004100024F4F581758A00758C00C28D7509002061
:1004200081FD3081FDD28C308109108D0280F8056C
:100430000980F4208109108D0280F8050980F4C23A
:100440008C850982120839AA82AB83ACF0FDC00208
:10045000C003C004C00590000075F0807447120707
:1004600096AA82AB83ACF0FDE58124FCF581858CF6
:1004700082C002C003C004C005120839AE82AF8337
:10048000A8F0F9C006C007C000C00190000075F0D8
:10049000807443120796AE82AF83A8F0F9E58124F9
:1004A000FCF581D005D004D003D002C006C007C03F
:1004B00000C0018A828B838CF0ED120844AA82ABC3
:1004C00083ACF0FDE58124FCF581AE8A7F008E824D
:1004D0008F83C002C003C004C005120973AE82AF8F
:1004E00083A8F0F9D005D004D003D002C006C0071D
:1004F000C000C0018A828B838CF0ED120844AA826E
:10050000AB83ACF0FDE58124FCF581C002C003C0E3
:1005100004C0059037BD75F0867434120796AA8220
:10052000AB83ACF0FDE58124FCF58130822F308374
:100530002C750A01D20090015C75F080C002C003E6
:10054000C004C005120310750A02D200900167753D
:10055000F080120310D005D004D003D00230820303
:1005600002063D20830302063DC002C003C004C052
:1005700005C002C003C004C00590A95075F0AB745B
:100580004E120796AE82AF83A8F0F9E58124FCF500
:1005900081E4C0E07480C0E0743BC0E07445C0E01A
:1005A0008E828F8388F0E9120980AE82AF83A8F033
:1005B000F9E58124FCF581D005D004D003D002C038
:1005C00002C003C004C005C006C007C000C001C00F
:1005D00002C003C004C0057472C0E07401C0E074BE
:1005E00080C0E0740BC0E07400C0E07440C0E01252
:1005F0000922E58124F6F581750A01D20090000BED
:1006000075F040120310747BC0E07401C0E0748088
:10061000C0E0740BC0E07400C0E07440C0E0120998
:1006200022E58124F6F581750A02D20090000B754F
:10063000F040120310D005D004D003D00230830361
:10064000020754208203020754C002C003C004C042
:1006500005C002C003C004C00590000075F010740E
:1006600043120796AE82AF83A8F0F9E58124FCF52A
:100670008174ACC0E074C5C0E074A7C0E07436C03B
:10068000E08E828F8388F0E9120980AE82AF83A862
:10069000F0F9E58124FCF581E4C0E0C0E0747AC0A3
:1006A000E07444C0E08E828F8388F0E9120968AE5E
:1006B00082AF83A8F0F9E58124FCF581E4C0E0C0B5
:1006C000E0C0E07440C0E08E828F8388F0E91209B8
:1006D00080AE82AF83A8F0F9E58124FCF581D005D6
:1006E000D004D003D002C006C007C000C001C002C1
:1006F000C003C004C0057472C0E07401C0E074801F
:10070000C0E0740BC0E07400C0E07440C0E01209A7
:1007100022E58124F6F581750A01D20090000B755F
:10072000F0401203107489C0E07401C0E07480C00E
:10073000E0740BC0E07400C0E07440C0E012092215
:10074000E58124F6F581750A02D20090000B75F060
:100750004012031030830302041430820302041495
:10076000120398750A01D20090019675F080120369
:100770001090006412024202041420F71430F614A0
:100780008883A88220F507E6A88375830022E2808B
:10079000F7E49322E022120B21BC0003020AC0EF0F
:1007A00060FA30D502B2D1E583B4FF03020AD6E580
:1007B00082B4FF03020AD6258340072482400B023D
:1007C0000AC02483145003020AD6F582EA8DF0A4ED
:1007D000A8F0EA8EF0A428F8E435F0F9EB8DF0A447
:1007E00028E935F0F9E433CA8FF0A429F9EA35F0A5
:1007F000FAEBF88EF0A429F9EA35F0FAE433FBECD1
:100800008DF0A429F9EA35F0FAE43BFBE88FF0A477
:100810002AFAEB35F0FBE433CCFD8EF0A42AFAEB98
:1008200035F0FBE43CFCED8FF0A42BFBEC35F0FC49
:1008300020E703120AEE020A9FE4AC82FBFAF97485
:1008400086020B58120B217900E583B58202800DD8
:100850005003120B62E583C39582120B7CE5D0C472
:1008600065D020E117EA2DFAEB3EFBEC3FFC500986
:100870007401120B7CEC4480FC020A9FC3EA9DFACF
:10088000EB9EFBEC9FFC500FC3E499F9E49AFAE469
:100890009BFBE49CFCB2D1120AEE020A9F02154BAC
:1008A00085823785833885F039851F3A90089D0207
:1008B0000F9EC008858108E50824FBF53AE5082469
:1008C000FBF8863708863808863990089D120F9EF7
:1008D000D00822AA82AB22AC23AD248B828C838DDC
:1008E000F0EA1215600522E4B52202052322858272
:1008F0002285832385F02485253785263885273969
:1009000085283A9008D3120F9EAA82AB83AC22AD01
:1009100023AE248C828D838EF0E41215608A828B44
:100920008322C008858108E50824F8F53AE5082403
:10093000FBF88622088623088624E50824F8F88632
:10094000370886380886399008D3120F9EAA82ABE2
:1009500083AC22AD23AE248C828D838EF0E41215FD
:10096000608A828B83D00822A8811818C6B2E7C695
:10097000020844AC83AB827A007900748E0215823F
:10098000120B2130D502B2D1BF0009BC0003020A0C
:10099000E3020AD6BC0003020AC0E583B4FF0BE5FC
:1009A00082B4FF03020AE3020AC0E582B4FF030235
:1009B0000AD6C395835007247F400B020AC02480C7
:1009C000145003020AD6C0E0E4CCCBCAF98D3B8EAA
:1009D0003C8F3DEF54F0C4F53E758306853EF0EB49
:1009E00084F582E9C4F9EAC4FAEBC4FBEC540FC401
:1009F0007803D6FC18EBD6FB18EAD6FA8582F0ED20
:100A0000A4A8F0FD8582F0EEA428FEE435F0F88578
:100A100082F0EFA428FFE435F0F8E99DF9EA9EFAA8
:100A2000EB9FFBEC98FCAD3BAE3CAF3D30E71015C7
:100A300082E92DF9EA3EFAEB3FFBE43CFC80EDC095
:100A400082D58398C3E933F9EA33FAEB33FBEC330D
:100A5000FCC3E99DEA9EEB9FEC9400B3E413F9D04C
:100A600002D0E0C44AFAD003D0E0C44BFBD004D09B
:100A7000E0F5F0540FC44CFCD082158230F40FD353
:100A8000EC13FCEB13FBEA13FAE913F90582E930E6
:100A9000E70A74012AFAE43BFBE43CFC020AB7B91A
:100AA0008003EA13B34010EA2401FAE43BFBE43C80
:100AB000FC50047C800582BC000EBB000BBA000811
:100AC000E4F5F0F583F58222A2D1E582138CF09251
:100AD000F78B838A8222E4F583F58275F080F4A295
:100AE000D11322E4F583F58275F0C0747F22780477
:100AF000EC7011E58224F8500AF582E4C9CACBFCF7
:100B0000D8EF22EC7820058220E713D5820122C39A
:100B1000E933F9EA33FAEB33FBEC33FCD8EA15821C
:100B200022AA82AB83A2F73392D16002D2F7F58278
:100B3000ACF0E58124F9F8E6FD08E6FE0886F00849
:100B4000E6A2F73392D56002D2F7F583AFF022FC2C
:100B5000ABF0AA83A982749EC2D1F582120AEE027A
:100B60000A9FE582C583F582A2D133A2D592D11323
:100B700092D5ECCFFCEBCEFBEACDFA226040F82513
:100B800082500274FFF582E824F8501ECCCBCAF9DB
:100B9000E4CC24F85014CBCAF9E4CB24F8500BCAA7
:100BA000F9E4CA24F8500379002224086010F8C33D
:100BB000EC13FCEB13FBEA13FAE913F9D8F122AAC0
:100BC0008274D0C0E0740BC0E0C029C02A8A82229F
:100BD0000530E4B53002053122AA8274302AFA24A5
:100BE000C6500A74072AFA3001034302208A82029F
:100BF0000BBFE582FAC4540FF582C002120BD9D0A4
:100C000002740F5AF582020BD9AA2BAB2CAC2DAD76
:100C10002EAE2F753620EE2EFEED235401FF420638
:100C2000EA2AFAEB33FBEC33FCED33FDC3EE9532ED
:100C30004008EEC39532FE430201D536D98A2B8B8C
:100C40002C8C2D8D2E8E2F22784BE624D075F00A19
:100C5000A4FA784CE624D02AFA784A8603BB2D04FD
:100C6000C3E49AFA753201C3E464808AF063F080C9
:100C700095F050297536038A0374F62536401C0515
:100C800032E53614243FF8E536243FF98704A604FC
:100C9000772E1BEBFA6004053680DE8B02EA30E724
:100CA0000D784086037841A6037840762E0AE53415
:100CB000600AE53404FB2532F5328005300C02056C
:100CC00032783F8603E4BB2D0104FB700620070346
:100CD0003008020532300503020D8F300657EB60F5
:100CE0000C75822DC002120BBFD002801C30070C85
:100CF00075822BC002120BBFD002800D30080A751E
:100D00008220C002120BBFD00278408604BC2E0C99
:100D1000758230C002120BBFD0021533AC331533CD
:100D2000C3E5329C4003020DD3758230C002120B22
:100D3000BFD00280E7AC331533C3E5329C500C754D
:100D40008220C002120BBFD00280EA783F8604BC2A
:100D50002D0C75822DC002120BBFD002801C3007F3
:100D60000C75822BC002120BBFD002800D30080A16
:100D7000758220C002120BBFD00278408604BC2EC0
:100D800052758230C002120BBFD00215338044EB83
:100D9000600E75822DC002120BBFD0021533802069
:100DA00030070E75822BC002120BBFD002153380A4
:100DB0000F30080C758220C002120BBFD002153311
:100DC00078408603BB2E0C758230C002120BBFD058
:100DD000021533753601C20EE536243FF88603BB93
:100DE0004503020E90BB2E348A03C3E464808BF06B
:100DF00063F08095F0500F758230C003120BBFD0A6
:100E0000031B8B0280E48B02D20EE5347038200C79
:100E100003020E9075822E120BBF8074300E278A4B
:100E200003EB30E71FC3E464808534F063F0809502
:100E3000F0500C758230C003120BBFD00315340B79
:100E40008B0280DD8B02300E0EC3E464808534F0AB
:100E500063F08095F05021E536243FF886038B82BD
:100E6000C002120BBFD002300E0EE536243FF886CA
:100E700003BB2E02800215341533C3E4648085342D
:100E8000F063F08095F04003200E050536020DD882
:100E9000C3E464808534F063F08095F0500A758275
:100EA00030120BBF153480E830050FAA331533EA32
:100EB0006008758220120BBF80F122E53470033088
:100EC0000C0D74072534FAE533C39AF5338006E533
:100ED0003324FAF533753600783F8602BA2B0F209B
:100EE000070C783F7620200805753601053320056C
:100EF00019AA33C3E464808AF063F08095F0500A45
:100F0000758220120BBF153380E7C20EE536243FF1
:100F1000F88602BA00028069BA451F300102766580
:100F2000C3E464808534F063F08095F0500A7582E4
:100F300030120BBF153480E8D20EC3E5369402E4BC
:100F400033FA7014EA700EC3E464808534F063F001
:100F50008095F04003300E16E536243FF886028A6D
:100F600082120BBFE53624FD50121534800E740238
:100F7000B53609300C0675822E120BBF0536020FEE
:100F80000C300519AA33C3E464808AF063F08095BD
:100F9000F0500A758220120BBF153380E72285823C
:100FA0002985832AE4F530F531AA37AB38AC398A84
:100FB000828B838CF012077AFD74012AF537E43BAB
:100FC000F5388C39EDFA7003021544BA2502800316
:100FD00002153CC205C206C207C208C209C20AC243
:100FE0000BC20CC202C203C2047532007533007515
:100FF00034FFAB37AC38AD398B828C838DF0120760
:101000007AFAA3AB82AC838B378C388D39BA25073B
:101010008A82120BBF80928A06BE3000402E8A065A
:10102000EE24C6402774FFB53413E53375F00AA4E7
:10103000FEEA24D02EF53370BFD20680BBE53475AE
:10104000F00AA4FEEA24D02EF53480ACBA2E0A743D
:10105000FFB534A4753400809F8A06BE6100400E3F
:101060008A06EE248540075302DFD2018002C201C6
:10107000BA20028075BA23030210F9BA2A030210BB
:10108000FEBA2B02805FBA2D028055BA4202805F01
:10109000BA4303021143BA440302127EBA45030263
:1010A0001298BA4603021294BA470302129CBA4934
:1010B0000302127EBA4C02803BBA4E030212A0BA5F
:1010C0004F03021285BA5003021217BA53030211DA
:1010D00067BA550302128ABA580302128F0212CA63
:1010E000D205020FF8D207020FF8D208020FF8D289
:1010F0000A020FF8D20B020FF8D20C020FF874FF9D
:10110000B53420300A0BE53A14F8883A8633020FDA
:10111000F8E53A24FEF8883A8606088607188E33E2
:10112000020FF8300A0BE53A14F8883A8634020FB9
:10113000F8E53A24FEF8883A8606088607188E34C1
:10114000020FF8300A0AE53A14F8883A8602800F4E
:10115000E53A24FEF8883A8603088604188B028A4A
:1011600082120BBF0212CFE53A24FDF8883A8603BB
:1011700008860408860518188B2B8C2C8D2D8B82E5
:101180008C838DF01216C5AB82AC838B3574FFB5A2
:10119000340385353420051DC3E53595335016E5F8
:1011A00033C39535F533AB331533EB6008758220C7
:1011B000120BBF80F1852B82852C83852DF01207C1
:1011C0007AFBFA6029AB341534C3E464808BF06396
:1011D000F08095F050188A82120BBFAB2BAC2CAD6F
:1011E0002D0BBB00010C8B2B8C2C8D2D80C720056B
:1011F000030212CFC3E535953340030212CFE53326
:10120000C39535F533AB331533EB70030212CF754D
:101210008220120BBF80EEE53A24FDF8883A86035F
:1012200008860408860518188B2B8C2C8D2DE52D2F
:10123000FB30E7047A438013EB546060047A5080FB
:101240000AEB30E6047A4980027A588A82C0021298
:101250000BBF75823A120BBF758230120BBF7582BD
:1012600078120BBFD002BA4902800BBA5002800636
:10127000852C82120BF2852B82120BF28051D2093F
:1012800075320A804A753208804575320A80407589
:101290003210803BD2028037D2038033D204802FB9
:1012A000E53A24FDF8883A8603088604088605187E
:1012B000188B2B8C2C8D2D8B828C838DF0E530122E
:1012C0001560A3E53112156080058A82120BBF20DC
:1012D0000206200303300470E53A24FCF8883A86BD
:1012E000030886040886050886061818188B2B8CB8
:1012F0002C8D2D8E2EE52BE52CE52DE52E8B828C6D
:10130000838DF0EE1215A674FFB5340375340630E4
:101310000427747F552EFB8B2FE52FEB2BFB8B2F98
:10132000E52D30E7067401452FF52FE52F246840A1
:10133000067499252F4002D203300306120EBB0219
:101340000FA9120C48020FA9E5327003020FA97B06
:1013500044300A2BE53A14F8883AE6FC3395E0FD70
:10136000FEFF8C2B8D2C8E2D8F2E20095EAC2B7DBD
:10137000007E007F008C2B8D2C8E2D8F2E804C308C
:101380000B1FE53A24FCF8883A860408860508868F
:10139000060886071818188C2B8D2C8E2D8F2E8002
:1013A0002AE53A24FEF8883A860408860518ED33C3
:1013B00095E0FEFF8C2B8D2C8E2D8F2E20090CACF2
:1013C0002BAD2C7E007F008E2D8F2E300C43E52B15
:1013D000452C452D452E60397408B5320C75823088
:1013E000C003120BBFD00380287410B5322375825E
:1013F00030C003120BBFD00330010C758278C003DC
:10140000120BBFD003800A758258C003120BBFD0E5
:1014100003300925AC2BAD2CAE2DE52EFF30E717A0
:10142000C3E49CFCE49DFDE49EFEE49FFF8C2B8DB9
:101430002C8E2D8F2E8002C209753500D20D8B00A7
:10144000752F00C000120C09D000200D0DE52FC42F
:10145000FCE6FD4CF61888038002A62F0535B20D78
:10146000E52B452C452D452E70D68803E5337003BA
:1014700075330120061A200517E53504FCC39533A2
:10148000500E758220C003120BBFD003153380E9C4
:1014900030090E75822DC003120BBFD003153380A7
:1014A00024E535602030070E75822BC003120BBF78
:1014B000D0031533800F30080C758220C003120B47
:1014C000BFD003153320051EAC331533C3E5359C5F
:1014D00050273006047C3080027C208C82C00312AE
:1014E0000BBFD00380E2C3E53595335009E533C324
:1014F0009535F53380037533008B00AB351535EB2F
:101500006022B20D200D0A08E6C4540FFB8B2F8019
:10151000078603740F5BF52F852F82C000120BD94D
:10152000D00080D7200503020FA9AB331533EB7031
:1015300003020FA9758220120BBF80EE8A82120B64
:10154000BF020FA985308285318322AA82BA0A0898
:1015500010990280FB75990D10990280FB8A9922DF
:1015600020F71030F6118883A88220F507F6A883AB
:1015700075830022F280F7F022FCABF0AA83A982E7
:10158000749EF582C2D1EC30E716D2D1E9F4240181
:10159000F9EAF43400FAEBF43400FBECF43400FC28
:1015A000120AEE020A9FC0E0F84582458345F070BA
:1015B00009F5F0FBFCFDFE021674E823A2F792E0A9
:1015C000F8A982AA83D2F7ABF07C007E07C3749798
:1015D00098404074FF2EFE740A89F0A4F985F082C9
:1015E000740A8AF0A4FA85F083740A8BF0A4FB7461
:1015F0000529F9EA3582FAEB3583FB740035F0FCF6
:10160000C3EC13FCEB13FBEA13FAE913F908EC70D3
:10161000EF80BAE8C3947FF88B838EF0E4FBFCFD87
:10162000FEFF08C3E933F9EA33FAE58333F583EBC8
:101630003BD4FBEC3CD4FCED3DD4FDEE3ED4FEEFC0
:101640003FD4FF602D05F074052BD4FBE43CD4FCA3
:10165000E43DD4FDE43ED4FEE43FD4FF758204C3F0
:10166000EF13FFEE13FEED13FDEC13FCEB13FBD5B4
:1016700082EDD8AF783FD0E020E704762B80027669
:101680002D087906E7C4540F4430F608B9060376EE
:101690002E08E7540F4430F60819B902E7764508DA
:1016A000E5F020E704762B8004762DF4040875F02D
:1016B0000A844430F608E5F04430F608E4F6900079
:1016C0003F75F04022AA82AB83ACF07D007E008A99
:1016D000828B838CF012077AFFA3AA82AB83EF6020
:1016E000070DBD00EA0E80E78D828E832200000088
:00000001FF
