:10000000020003758131120EEFE582600302006F7A
:10001000780079007A007B007C007D00EC4D601C4C
:1000200088828983E493A3A882A9838A828B83F040
:10003000A3AA82AB831CBCFFE31D80E07582007520
:1000400083007C007D00EC4D600AE4F0A31CBCFF43
:10005000F51D80F27582007583007C007D00EC4DFB
:10006000600AE4F0A31CBCFFF51D80F2120115121A
:10007000015080FE1B5B324A00506572696F64203C
:100080006D6561737572656D656E74206174207045
:10009000696E2050302E31207573696E6720546967
:1000A0006D657220302E0A46696C653A2025730A08
:1000B000436F6D70696C65643A2025732C2025733D
:1000C0000A0A00433A5C55736572735C4572696352
:1000D0005C4F6E6544726976655C454C45432032E1
:1000E00039315C4D6F64756C6520345C50657269A4
:1000F0006F64463338782E630046656220323620BE
:10010000323031370031363A33393A3438000D66FF
:100110003D256673002243A41075E10175E2507518
:10012000E3002243A90343B20375EF04227598103C
:10013000758D30538EF4438E08858D8B53890F4314
:100140008920D28ED299225389F0438901C28C2210
:1001500053D9BF12011612012312012D1201477447
:1001600074C0E07400C0E07480C0E0120400158127
:10017000158115817405C0E07401C0E07480C0E091
:1001800074F9C0E07400C0E07480C0E074C3C0E0E3
:100190007400C0E07480C0E07479C0E07400C0E016
:1001A0007480C0E0120400E58124F4F581758A00B2
:1001B000758C00C28D7509002081FD3081FDD28CC7
:1001C000308109108D0280F8050980F42081091022
:1001D0008D0280F8050980F4C28C8509821203879C
:1001E000AA82AB83ACF0FDC002C003C004C005907E
:1001F000000075F08074471202E4AA82AB83ACF071
:10020000FDE58124FCF581858C82C002C003C00419
:10021000C005120387AE82AF83A8F0F9C006C007FD
:10022000C000C00190000075F08074431202E4AE7B
:1002300082AF83A8F0F9E58124FCF581D005D004D4
:10024000D003D002C006C007C000C0018A828B83E1
:100250008CF0ED120392AA82AB83ACF0FDE5812411
:10026000FCF581AE8A7F008E828F83C002C003C0FE
:1002700004C005120421AE82AF83A8F0F9D005D0E6
:1002800004D003D002C006C007C000C0018A828B20
:10029000838CF0ED120392AA82AB83ACF0FDE58172
:1002A00024FCF581C002C003C004C0059037BD75B1
:1002B000F08674341202E4AA82AB83ACF0FDE581CF
:1002C00024FCF581C002C003C004C005740EC0E068
:1002D0007401C0E07480C0E0120400E58124F9F5E7
:1002E000810201AD1204B0BC000302044FEF60FABA
:1002F00030D502B2D1E583B4FF03020465E582B4D0
:10030000FF03020465258340072482400B02044F4B
:100310002483145003020465F582EA8DF0A4A8F04A
:10032000EA8EF0A428F8E435F0F9EB8DF0A428E982
:1003300035F0F9E433CA8FF0A429F9EA35F0FAEB85
:10034000F88EF0A429F9EA35F0FAE433FBEC8DF0ED
:10035000A429F9EA35F0FAE43BFBE88FF0A42AFA85
:10036000EB35F0FBE433CCFD8EF0A42AFAEB35F04C
:10037000FBE43CFCED8FF0A42BFBEC35F0FC20E71C
:100380000312047D02042EE4AC82FBFAF9748602A7
:1003900004E71204B07900E583B58202800D5003B2
:1003A0001204F1E583C3958212050BE5D0C465D034
:1003B00020E117EA2DFAEB3EFBEC3FFC50097401FB
:1003C00012050BEC4480FC02042EC3EA9DFAEB9E5E
:1003D000FBEC9FFC500FC3E499F9E49AFAE49BFB11
:1003E000E49CFCB2D112047D02042E020EDA858256
:1003F0001985831A85F01B850A1C9003EB02092DD1
:10040000C008858108E50824FBF51CE50824FBF8F5
:10041000861908861A08861B9003EB12092DD0084E
:1004200022AC83AB827A007900748E020EFCB98014
:1004300003EA13B34010EA2401FAE43BFBE43CFC7A
:1004400050047C800582BC000EBB000BBA0008E49F
:10045000F5F0F583F58222A2D1E582138CF092F7B4
:100460008B838A8222E4F583F58275F080F4A2D131
:100470001322E4F583F58275F0C0747F227804ECD2
:100480007011E58224F8500AF582E4C9CACBFCD881
:10049000EF22EC7820058220E713D5820122C3E900
:1004A00033F9EA33FAEB33FBEC33FCD8EA1582225A
:1004B000AA82AB83A2F73392D16002D2F7F582AC65
:1004C000F0E58124F9F8E6FD08E6FE0886F008E686
:1004D000A2F73392D56002D2F7F583AFF022FCABDE
:1004E000F0AA83A982749EC2D1F58212047D02040F
:1004F0002EE582C583F582A2D133A2D592D1139283
:10050000D5ECCFFCEBCEFBEACDFA226040F8258299
:10051000500274FFF582E824F8501ECCCBCAF9E4EF
:10052000CC24F85014CBCAF9E4CB24F8500BCAF908
:10053000E4CA24F8500379002224086010F8C3ECC0
:1005400013FCEB13FBEA13FAE913F9D8F122AA82A0
:10055000745FC0E07405C0E0C00BC00C8A82220545
:1005600012E4B51202051322AA8274302AFA24C6B4
:10057000500A74072AFA3000034302208A820205D7
:100580004EE582FAC4540FF582C002120568D0020B
:10059000740F5AF582020568AA0DAB0EAC0FAD10B0
:1005A000AE11751820EE2EFEED235401FF4206EA2F
:1005B0002AFAEB33FBEC33FCED33FDC3EE9514402C
:1005C00008EEC39514FE430201D518D98A0D8B0E8F
:1005D0008C0F8D108E1122782EE624D075F00AA48F
:1005E000FA782FE624D02AFA782D8603BB2D04C38F
:1005F000E49AFA751401C3E464808AF063F080958C
:10060000F050297518038A0374F62518401C051448
:10061000E518142422F8E5182422F98704A60477A3
:100620002E1BEBFA6004051880DE8B02EA30E70D22
:10063000782386037824A6037823762E0AE51660AD
:100640000AE51604FB2514F5148005300B02051489
:1006500078228603E4BB2D0104FB700620060330DC
:100660000702051430040302071E300557EB600C27
:1006700075822DC00212054ED002801C30060C750A
:10068000822BC00212054ED002800D30070A7582FF
:1006900020C00212054ED00278238604BC2E0C75B1
:1006A0008230C00212054ED0021515AC151515C3C7
:1006B000E5149C4003020762758230C00212054EA9
:1006C000D00280E7AC151515C3E5149C500C75825B
:1006D00020C00212054ED00280EA78228604BC2D8A
:1006E0000C75822DC00212054ED002801C30060C03
:1006F00075822BC00212054ED002800D30070A759C
:100700008220C00212054ED00278238604BC2E52ED
:10071000758230C00212054ED00215158044EB6080
:100720000E75822DC00212054ED0021515802030A4
:10073000060E75822BC00212054ED0021515800FD1
:1007400030070C758220C00212054ED002151578B4
:10075000238603BB2E0C758230C00212054ED002D8
:100760001515751801C20DE5182422F88603BB453E
:100770000302081FBB2E348A03C3E464808BF0633A
:10078000F08095F0500F758230C00312054ED003F3
:100790001B8B0280E48B02D20DE5167038200B0310
:1007A00002081F75822E12054E8074300D278A03B1
:1007B000EB30E71FC3E464808516F063F08095F0AA
:1007C000500C758230C00312054ED00315160B8BEA
:1007D0000280DD8B02300D0EC3E464808516F06369
:1007E000F08095F05021E5182422F886038B82C012
:1007F0000212054ED002300D0EE5182422F88603B1
:10080000BB2E02800215161515C3E464808516F010
:1008100063F08095F04003200D050518020767C3BB
:10082000E464808516F063F08095F0500A7582309C
:1008300012054E151680E830040FAA151515EA604A
:100840000875822012054E80F122E5167003300BE8
:100850000D74072516FAE515C39AF5158006E515FA
:1008600024FAF51575180078228602BA2B0F200697
:100870000C7822762020070575180105152004192B
:10088000AA15C3E464808AF063F08095F0500A757D
:10089000822012054E151580E7C20DE5182422F8B6
:1008A0008602BA00028069BA451F3000027665C32D
:1008B000E464808516F063F08095F0500A7582300C
:1008C00012054E151680E8D20DC3E5189402E433E4
:1008D000FA7014EA700EC3E464808516F063F08049
:1008E00095F04003300D16E5182422F886028A821E
:1008F00012054EE51824FD50121516800E7402B52F
:100900001809300B0675822E12054E051802089B39
:10091000300419AA15C3E464808AF063F08095F06E
:10092000500A75822012054E151580E72285820B2C
:1009300085830CE4F512F513AA19AB1AAC1B8A8255
:100940008B838CF0120F20FD74012AF519E43BF51E
:100950001A8C1BEDFA7003020ED3BA250280030233
:100960000ECBC204C205C206C207C208C209C20A2F
:10097000C20BC201C202C2037514007515007516C0
:10098000FFAB19AC1AAD1B8B828C838DF0120F203C
:10099000FAA3AB82AC838B198C1A8D1BBA25078AFC
:1009A0008212054E80928A06BE3000402E8A06EEE4
:1009B00024C6402774FFB51613E51575F00AA4FE8A
:1009C000EA24D02EF51570BFD20580BBE51675F070
:1009D0000AA4FEEA24D02EF51680ACBA2E0A74FFC3
:1009E000B516A4751600809F8A06BE6100400E8A67
:1009F00006EE248540075302DFD2008002C200BA0F
:100A000020028075BA2303020A88BA2A03020A8DDB
:100A1000BA2B02805FBA2D028055BA4202805FBABB
:100A20004303020AD2BA4403020C0DBA4503020C76
:100A300027BA4603020C23BA4703020C2BBA490318
:100A4000020C0DBA4C02803BBA4E03020C2FBA4F77
:100A500003020C14BA5003020BA6BA5303020AF69F
:100A6000BA5503020C19BA5803020C1E020C59D2D3
:100A700004020987D206020987D207020987D20930
:100A8000020987D20A020987D20B02098774FFB5CF
:100A9000162030090BE51C14F8881C8615020987FE
:100AA000E51C24FEF8881C8606088607188E1502A9
:100AB000098730090BE51C14F8881C861602098783
:100AC000E51C24FEF8881C8606088607188E160288
:100AD000098730090AE51C14F8881C8602800FE596
:100AE0001C24FEF8881C8603088604188B028A8260
:100AF00012054E020C5EE51C24FDF8881C860308D6
:100B0000860408860518188B0D8C0E8D0F8B828C31
:100B1000838DF0121074AB82AC838B1774FFB51603
:100B20000385171620041DC3E51795155016E51506
:100B3000C39517F515AB151515EB600875822012D6
:100B4000054E80F1850D82850E83850FF0120F20F2
:100B5000FBFA6029AB161516C3E464808BF063F0D2
:100B60008095F050188A8212054EAB0DAC0EAD0F79
:100B70000BBB00010C8B0D8C0E8D0F80C720040366
:100B8000020C5EC3E51795154003020C5EE515C324
:100B90009517F515AB151515EB7003020C5E7582F4
:100BA0002012054E80EEE51C24FDF8881C86030803
:100BB000860408860518188B0D8C0E8D0FE50FFB2B
:100BC00030E7047A438013EB546060047A50800A63
:100BD000EB30E6047A4980027A588A82C002120514
:100BE0004E75823A12054E75823012054E75827826
:100BF00012054ED002BA4902800BBA500280068517
:100C00000E82120581850D821205818051D20875F0
:100C1000140A804A751408804575140A80407514BA
:100C200010803BD2018037D2028033D203802FE57F
:100C30001C24FDF8881C86030886040886051818FD
:100C40008B0D8C0E8D0F8B828C838DF0E512121024
:100C50005BA3E51312105B80058A8212054E20010A
:100C600006200203300370E51C24FCF8881C860370
:100C70000886040886050886061818188B0D8C0E41
:100C80008D0F8E10E50DE50EE50FE5108B828C8340
:100C90008DF0EE120F3C74FFB51603751606300387
:100CA00027747F5510FB8B11E511EB2BFB8B11E5A6
:100CB0000F30E70674014511F511E511246840066F
:100CC000749925114002D20230020612084A020924
:100CD000381205D7020938E51470030209387B275A
:100CE00030092BE51C14F8881CE6FC3395E0FDFE6A
:100CF000FF8C0D8D0E8E0F8F1020085EAC0D7D00C9
:100D00007E007F008C0D8D0E8E0F8F10804C300A70
:100D10001FE51C24FCF8881C860408860508860646
:100D20000886071818188C0D8D0E8E0F8F10802ACC
:100D3000E51C24FEF8881C860408860518ED33950A
:100D4000E0FEFF8C0D8D0E8E0F8F1020080CAC0D69
:100D5000AD0E7E007F008E0F8F10300B43E50D45EA
:100D60000E450F451060397408B5140C758230C0FB
:100D70000312054ED00380287410B51423758230F9
:100D8000C00312054ED00330000C758278C00312E8
:100D9000054ED003800A758258C00312054ED00359
:100DA000300825AC0DAD0EAE0FE510FF30E717C3D0
:100DB000E49CFCE49DFDE49EFEE49FFF8C0D8D0E03
:100DC0008E0F8F108002C208751700D20C8B007531
:100DD0001100C000120598D000200C0DE511C4FCD4
:100DE000E6FD4CF61888038002A6110517B20CE543
:100DF0000D450E450F451070D68803E51570037537
:100E0000150120051A200417E51704FCC395155099
:100E10000E758220C00312054ED003151580E930EF
:100E2000080E75822DC00312054ED00315158024BF
:100E3000E517602030060E75822BC00312054ED0D8
:100E4000031515800F30070C758220C00312054E64
:100E5000D003151520041EAC151515C3E5179C50BD
:100E6000273005047C3080027C208C82C003120570
:100E70004ED00380E2C3E51795155009E515C395DB
:100E800017F51580037515008B00AB171517EB6070
:100E900022B20C200C0A08E6C4540FFB8B11800709
:100EA0008603740F5BF511851182C000120568D0AE
:100EB0000080D7200403020938AB151515EB700329
:100EC00002093875822012054E80EE8A8212054E84
:100ED00002093885128285138322AA82BA0A081071
:100EE000990280FB75990D10990280FB8A992275F1
:100EF000820022FCABF0AA83A982749EF582C2D143
:100F0000EC30E716D2D1E9F42401F9EAF43400FA1E
:100F1000EBF43400FBECF43400FC12047D02042EEC
:100F200020F71430F6148883A88220F507E6A883FA
:100F300075830022E280F7E49322E022C0E0F845C6
:100F400082458345F07009F5F0FBFCFDFE02100AB6
:100F5000E823A2F792E0F8A982AA83D2F7ABF07C4B
:100F6000007E07C3749798404074FF2EFE740A8970
:100F7000F0A4F985F082740A8AF0A4FA85F08374EB
:100F80000A8BF0A4FB740529F9EA3582FAEB358364
:100F9000FB740035F0FCC3EC13FCEB13FBEA13FA13
:100FA000E913F908EC70EF80BAE8C3947FF88B83FB
:100FB0008EF0E4FBFCFDFEFF08C3E933F9EA33FAE7
:100FC000E58333F583EB3BD4FBEC3CD4FCED3DD423
:100FD000FDEE3ED4FEEF3FD4FF602D05F074052BEF
:100FE000D4FBE43CD4FCE43DD4FDE43ED4FEE43F39
:100FF000D4FF758204C3EF13FFEE13FEED13FDEC77
:1010000013FCEB13FBD582EDD8AF7822D0E020E7BC
:1010100004762B8002762D087906E7C4540F4430FD
:10102000F608B90603762E08E7540F4430F608197F
:10103000B902E7764508E5F020E704762B800476D0
:101040002DF4040875F00A844430F608E5F04430C5
:10105000F608E4F690002275F0402220F71030F6F2
:10106000118883A88220F507F6A88375830022F2F1
:1010700080F7F022AA82AB83ACF07D007E008A82EA
:101080008B838CF0120F20FFA3AA82AB83EF600743
:101090000DBD00EA0E80E78D828E832200000000E5
:00000001FF
